{
  "contractName": "Audit",
  "abi": [
    {
      "constant": true,
      "inputs": [
        {
          "name": "",
          "type": "uint256"
        }
      ],
      "name": "documentStates",
      "outputs": [
        {
          "name": "",
          "type": "string"
        }
      ],
      "payable": false,
      "stateMutability": "view",
      "type": "function"
    },
    {
      "anonymous": false,
      "inputs": [
        {
          "indexed": false,
          "name": "documentId",
          "type": "uint256"
        },
        {
          "indexed": false,
          "name": "state",
          "type": "string"
        }
      ],
      "name": "DocumentStateChanged",
      "type": "event"
    },
    {
      "anonymous": false,
      "inputs": [
        {
          "indexed": false,
          "name": "documentId",
          "type": "uint256"
        },
        {
          "indexed": false,
          "name": "owner",
          "type": "address"
        },
        {
          "indexed": false,
          "name": "state",
          "type": "string"
        }
      ],
      "name": "DocumentAdded",
      "type": "event"
    },
    {
      "constant": false,
      "inputs": [
        {
          "name": "documentId",
          "type": "uint256"
        },
        {
          "name": "state",
          "type": "string"
        },
        {
          "name": "documentHash",
          "type": "bytes32"
        }
      ],
      "name": "addDocument",
      "outputs": [],
      "payable": false,
      "stateMutability": "nonpayable",
      "type": "function"
    },
    {
      "constant": false,
      "inputs": [
        {
          "name": "documentId",
          "type": "uint256"
        },
        {
          "name": "state",
          "type": "string"
        },
        {
          "name": "documentHash",
          "type": "bytes32"
        }
      ],
      "name": "setState",
      "outputs": [],
      "payable": false,
      "stateMutability": "nonpayable",
      "type": "function"
    },
    {
      "constant": true,
      "inputs": [
        {
          "name": "documentId",
          "type": "uint256"
        }
      ],
      "name": "getState",
      "outputs": [
        {
          "name": "",
          "type": "string"
        }
      ],
      "payable": false,
      "stateMutability": "view",
      "type": "function"
    },
    {
      "constant": true,
      "inputs": [],
      "name": "getCount",
      "outputs": [
        {
          "name": "",
          "type": "uint256"
        }
      ],
      "payable": false,
      "stateMutability": "view",
      "type": "function"
    }
  ],
  "bytecode": "0x608060405234801561001057600080fd5b50610981806100206000396000f3fe60806040526004361061006d576000357c0100000000000000000000000000000000000000000000000000000000900463ffffffff16806344c9af28146100725780635be9a58e146101265780636f8c9211146102025780638cb672a6146102de578063a87d942c14610392575b600080fd5b34801561007e57600080fd5b506100ab6004803603602081101561009557600080fd5b81019080803590602001909291905050506103bd565b6040518080602001828103825283818151815260200191508051906020019080838360005b838110156100eb5780820151818401526020810190506100d0565b50505050905090810190601f1680156101185780820380516001836020036101000a031916815260200191505b509250505060405180910390f35b34801561013257600080fd5b506102006004803603606081101561014957600080fd5b81019080803590602001909291908035906020019064010000000081111561017057600080fd5b82018360208201111561018257600080fd5b803590602001918460018302840111640100000000831117156101a457600080fd5b91908080601f016020809104026020016040519081016040528093929190818152602001838380828437600081840152601f19601f82011690508083019250505050505050919291929080359060200190929190505050610471565b005b34801561020e57600080fd5b506102dc6004803603606081101561022557600080fd5b81019080803590602001909291908035906020019064010000000081111561024c57600080fd5b82018360208201111561025e57600080fd5b8035906020019184600183028401116401000000008311171561028057600080fd5b91908080601f016020809104026020016040519081016040528093929190818152602001838380828437600081840152601f19601f82011690508083019250505050505050919291929080359060200190929190505050610654565b005b3480156102ea57600080fd5b506103176004803603602081101561030157600080fd5b81019080803590602001909291905050506107bb565b6040518080602001828103825283818151815260200191508051906020019080838360005b8381101561035757808201518184015260208101905061033c565b50505050905090810190601f1680156103845780820380516001836020036101000a031916815260200191505b509250505060405180910390f35b34801561039e57600080fd5b506103a761086b565b6040518082815260200191505060405180910390f35b60606000808381526020019081526020016000208054600181600116156101000203166002900480601f0160208091040260200160405190810160405280929190818152602001828054600181600116156101000203166002900480156104655780601f1061043a57610100808354040283529160200191610465565b820191906000526020600020905b81548152906001019060200180831161044857829003601f168201915b50505050509050919050565b60006002600081548092919060010191905055905061048e610875565b6060604051908101604052808381526020013373ffffffffffffffffffffffffffffffffffffffff168152602001848152509050600181908060018154018082558091505090600182039060005260206000209060030201600090919290919091506000820151816000015560208201518160010160006101000a81548173ffffffffffffffffffffffffffffffffffffffff021916908373ffffffffffffffffffffffffffffffffffffffff160217905550604082015181600201555050508360008087815260200190815260200160002090805190602001906105749291906108b0565b507f47196c0e663d62a1d20866949e3abb46ff57bfa0f0ccea5f2ff2b3b518325d98823386604051808481526020018373ffffffffffffffffffffffffffffffffffffffff1673ffffffffffffffffffffffffffffffffffffffff16815260200180602001828103825283818151815260200191508051906020019080838360005b838110156106115780820151818401526020810190506105f6565b50505050905090810190601f16801561063e5780820380516001836020036101000a031916815260200191505b5094505050505060405180910390a15050505050565b8060018481548110151561066457fe5b9060005260206000209060030201600201541415156106eb576040517f08c379a00000000000000000000000000000000000000000000000000000000081526004018080602001828103825260158152602001807f446f63756d656e7420686173206368616e6765642e000000000000000000000081525060200191505060405180910390fd5b8160008085815260200190815260200160002090805190602001906107119291906108b0565b507f705b1a551f7b04ce77dec913709b6d8707c9dcb9940419e66c43af97fbdf331c83836040518083815260200180602001828103825283818151815260200191508051906020019080838360005b8381101561077b578082015181840152602081019050610760565b50505050905090810190601f1680156107a85780820380516001836020036101000a031916815260200191505b50935050505060405180910390a1505050565b60006020528060005260406000206000915090508054600181600116156101000203166002900480601f0160208091040260200160405190810160405280929190818152602001828054600181600116156101000203166002900480156108635780601f1061083857610100808354040283529160200191610863565b820191906000526020600020905b81548152906001019060200180831161084657829003601f168201915b505050505081565b6000600254905090565b60606040519081016040528060008152602001600073ffffffffffffffffffffffffffffffffffffffff168152602001600080191681525090565b828054600181600116156101000203166002900490600052602060002090601f016020900481019282601f106108f157805160ff191683800117855561091f565b8280016001018555821561091f579182015b8281111561091e578251825591602001919060010190610903565b5b50905061092c9190610930565b5090565b61095291905b8082111561094e576000816000905550600101610936565b5090565b9056fea165627a7a7230582075c9d15e713f113c4ab1698a84305c24fbb147016d4ac8f72a10b317730fe7640029",
  "source": "pragma solidity >=0.4.21;\r\n\r\ncontract Audit {\r\n\r\n    event DocumentStateChanged(uint documentId, string state);\r\n    event DocumentAdded(uint documentId, address owner, string state);\r\n    \r\n    struct Document {\r\n        uint DocumentId;\r\n        address Owner;\r\n        bytes32 DocumentHash;        \r\n    }\r\n\r\n    mapping(uint => string) public documentStates;    \r\n    Document[] documents;\r\n    uint documentCount;\r\n\r\n    function addDocument(uint documentId, string memory state, bytes32 documentHash) public {\r\n        uint id = documentCount++;\r\n\r\n        Document memory doc = Document({\r\n            DocumentId : id,\r\n            Owner : msg.sender,\r\n            DocumentHash : documentHash\r\n        });\r\n\r\n        documents.push(doc);\r\n        documentStates[documentId] = state;        \r\n        \r\n        emit DocumentAdded(id, msg.sender, state);\r\n    }\r\n\r\n    function setState(uint documentId, string memory state, bytes32 documentHash) public {\r\n\r\n        require(documents[documentId].DocumentHash == documentHash, \"Document has changed.\");\r\n\r\n        documentStates[documentId] = state;\r\n        \r\n        emit DocumentStateChanged(documentId, state);\r\n    }\r\n\r\n    function getState(uint documentId) public view returns (string memory) {\r\n        return documentStates[documentId];        \r\n    }\r\n    \r\n    function getCount() public view returns (uint) {\r\n        return documentCount;\r\n    }\r\n}\r\n",
  "sourcePath": "C:/Projects/Code/github/azure/ebc-sharepoint/ethaudit/contracts/Audit.sol",
  "compiler": {
    "name": "solc",
    "version": "0.5.0+commit.1d4f565a.Emscripten.clang"
  },
  "schemaVersion": "3.0.1",
  "updatedAt": "2019-04-18T21:42:30.894Z",
  "devdoc": {
    "methods": {}
  },
  "userdoc": {
    "methods": {}
  }
}